:020000040800F2
:1000000090FF012079020008A5600008D53900089A
:1000100079480008290500086797000800000000DB
:10002000000000000000000000000000C101000806
:100030006F19000800000000150200089D810008EB
:10004000930200089302000893020008930200083C
:10005000930200089302000893020008930200082C
:10006000930200089302000893020008930200081C
:10007000930200089302000893020008930200080C
:100080009302000893020008930200089D070008ED
:100090002D0500082906000825070008930200081E
:1000A00093020008930200089302000893020008DC
:1000B0009D820008ED820008930200089302000868
:1000C00093020008930200089302000893020008BC
:1000D0009302000889910008659200085593000872
:1000E000930200089302000893020008930200089C
:1000F000930200089302000893020008930200088C
:100100009302000893020008458300089302000848
:1001100093020008B99000089302000893020008B7
:10012000930200089302000893020008930200085B
:1001300093020008151F000893020008090B00082D
:100140009908000895090008910A00089302000820
:1001500093020008930200089302000849940008E3
:10016000930200089302000893020008930200081B
:10017000930200089302000893020008930200080B
:1001800093020008930200089302000893020008FB
:1001900093020008930200089302000893020008EB
:1001A000930200089302000893020008DFF80CD0C5
:1001B00000F030F900480047E9EC000890FF01200A
:1001C0002A4B19680868B0E8F04F80F30988BFF33C
:1001D0006F8F4FF0000080F311887047000000001F
:1001E00006480068006880F3088862B661B6BFF30D
:1001F0004F8FBFF36F8F00DF00BF00BF08ED00E03F
:10020000DFF80C00016841F470010160704700BF25
:1002100088ED00E0EFF30980BFF36F8F134B1A688E
:100220001EF0100F08BF20ED108A20E9F04F10607B
:1002300008B44FF0500080F31188BFF34F8FBFF325
:100240006F8F18F071FB4FF0000080F3118808BC2D
:1002500019680868B0E8F04F1EF0100F08BFB0EC46
:10026000108A80F30988BFF36F8F7047CC06002097
:10027000EFF30580704700000648804706480047B6
:10028000FEE7FEE7FEE7FEE7FEE7FEE7FEE7FEE746
:10029000FEE7FEE7D1810008AD0100082DE9F0413D
:1002A0000024061B254671F1000605DA012400270B
:1002B000D0EB070067EB0101161E73F1000605DAAB
:1002C0000027D2EB0702012567EB030300F070F86B
:1002D00086460E4617469C46AC4204D00025D0EB1D
:1002E000050E65EB010624B10020D2EB000760EBA0
:1002F000030C704631463A466346BDE8F081202A39
:1003000006DBCB17203A41FA02F043EAE07306E03D
:1003100041FA02F3D040C2F120029140084319464D
:10032000704740EA01039B0703D009E008C9121F88
:1003300008C0042AFAD203E011F8013B00F8013B9F
:10034000521EF9D27047D2B201E000F8012B491ECB
:10035000FBD270470022F6E710B513460A46044662
:100360001946FFF7F0FF204610BD30B504460020C7
:10037000034600E05B1C934203D2E05CCD5C401B73
:10038000F8D030BD30B50B460146002020220124B4
:1003900009E021FA02F59D4205D303FA02F5491B53
:1003A00004FA02F52844151EA2F10102F1DC30BD69
:1003B0002DE9F05F0546002092469B46884606469A
:1003C000814640241BE0284641464746224600F02D
:1003D00042F853465A46C01A914110D31146184666
:1003E000224600F029F82D1A67EB01084F462246F5
:1003F0000120002100F020F817EB00094E41201EDB
:10040000A4F10104DFDC484631462A464346BDE8F4
:10041000F09F0000064C074D06E0E06840F0010345
:1004200094E8070098471034AC42F6D3FFF7C2FEB9
:10043000E4C3010804C40108202A04DB203A00FABE
:1004400002F1002070479140C2F1200320FA03F32B
:10045000194390407047202A04DB203A21FA02F029
:100460000021704721FA02F3D040C2F120029140EE
:1004700008431946704770B58C1810F8015B15F0E9
:10048000070301D110F8013B2A1106D110F8012B06
:1004900003E010F8016B01F8016B5B1EF9D12B072B
:1004A00005D40023521E0DD401F8013BFAE710F8E1
:1004B000013BCB1A921C03E013F8015B01F8015BCE
:1004C000521EF9D5A142D8D3002070BD7CB50024BE
:1004D00025E004EB4400134901EBC000406904EB44
:1004E0004401104A02EBC101096904EB44051646B8
:1004F00006EBC505CDE90010EB6804EB440506EBFF
:10050000C5052A8904EB440506EBC505696804EBBB
:10051000440556F8350018F079FE601CC4B2042C6E
:10052000D7DB7CBD2C97010800BFFEE730B585B056
:1005300002213B4800F096FC00286ED0022138488A
:1005400000F060FB6A460021354800F0AEFD354CF6
:1005500094F8801201EB810104EB8101019848605D
:1005600094F8801201EB8101009844F821009DF875
:10057000080040B9002094F8801201EB810104EBDF
:100580008101087207E0012094F8801201EB8101DB
:1005900004EB810108729DF8090040B9002094F82D
:1005A000801201EB810104EB8101487207E0012018
:1005B00094F8801201EB810104EB810148729DF8EF
:1005C0000A0094F8801201EB810104EB810188722A
:1005D00000250CE00DF10B00415D94F8800200EB6A
:1005E000800004EB80000B304155681CC5B29DF8BB
:1005F0000A00A842EEDC04F520742078401C20702C
:100600002078C11700EBD1614911A0EB4111217095
:10061000A078401CA070A4F5207405B030BD000087
:10062000006400406C3A002030B585B010213B4892
:1006300000F018FC00286ED01021384800F0E2FAD3
:100640006A460121354800F030FD354C94F880129F
:1006500001EB810104EB81010198486094F880125C
:1006600001EB8101009844F821009DF8080040B991
:10067000002094F8801201EB810104EB81010872E3
:1006800007E0012094F8801201EB810104EB810165
:1006900008729DF8090040B9002094F8801201EB1F
:1006A000810104EB8101487207E0012094F8801277
:1006B00001EB810104EB810148729DF80A0094F876
:1006C000801201EB810104EB8101887200250CE0AE
:1006D0000DF10B00415D94F8800200EB800004EB0B
:1006E00080000B304155681CC5B29DF80A00A84235
:1006F000EEDC04F520742078401C20702078C117AF
:1007000000EBD1614911A0EB41112170A078401C90
:10071000A070A4F5207405B030BD00000064004056
:100720006C3A002010B54FF480711B4800F09AFB22
:1007300020B14FF48071184800F064FA4FF4007152
:10074000154800F08FFB20B14FF40071124800F003
:1007500059FA4FF48061104800F084FB20B14FF447
:1007600080610D4800F04EFA4FF400610A4800F035
:1007700079FB20B14FF40061074800F043FA4FF4D1
:100780000041054800F06EFB20B14FF400410248E3
:1007900000F038FA10BD00000064004030B585B0AC
:1007A00001213B4800F02EFA3A4C94F8810294F86B
:1007B0008012884263D094F8820200285FD094F8B7
:1007C000810200EB800004EB80004068019094F807
:1007D000810200EB800054F82000009094F8810220
:1007E00000EB800004EB8000007A18B900208DF83F
:1007F000080002E004208DF8080094F8810200EB64
:10080000800004EB8000407A18B900208DF80900C0
:1008100002E002208DF8090094F8810200EB8000CC
:1008200004EB8000807A8DF80A0000250CE094F833
:10083000810200EB800004EB80000B30415D0DF184
:100840000B004155681CC5B29DF80A00A842EEDCB9
:1008500069460F4800F0BCFC04F281242078401C5B
:1008600020702078C11700EBD1614911A0EB411134
:1008700021706078401E6070A4F2812406E00020A0
:1008800084F8820294F8800284F8810205B030BDB9
:1008900000640040F03C002030B585B002213B48A8
:1008A00000F0E0FA00286ED00221384800F0AAF9E2
:1008B0006A460021354800F0F8FB354C94F8801268
:1008C00001EB810104EB81010198486094F88012EA
:1008D00001EB8101009844F821009DF8080040B91F
:1008E000002094F8801201EB810104EB8101087271
:1008F00007E0012094F8801201EB810104EB8101F3
:1009000008729DF8090040B9002094F8801201EBAC
:10091000810104EB8101487207E0012094F8801204
:1009200001EB810104EB810148729DF80A0094F803
:10093000801201EB810104EB8101887200250CE03B
:100940000DF10B00415D94F8800200EB800004EB98
:1009500080000B304155681CC5B29DF80A00A842C2
:10096000EEDC04F520742078401C20702078C1173C
:1009700000EBD1614911A0EB41112170A078401C1E
:10098000A070A4F5207405B030BD000000680040E0
:100990008C3F002030B585B010213B4800F062FA52
:1009A00000286ED01021384800F02CF96A46012149
:1009B000354800F07AFB354C94F8801201EB810148
:1009C00004EB81010198486094F8801201EB8101E9
:1009D000009844F821009DF8080040B9002094F8E0
:1009E000801201EB810104EB8101087207E0012014
:1009F00094F8801201EB810104EB810108729DF8EB
:100A0000090040B9002094F8801201EB810104EB49
:100A10008101487207E0012094F8801201EB810106
:100A200004EB810148729DF80A0094F8801201EBF2
:100A3000810104EB8101887200250CE00DF10B00AF
:100A4000415D94F8800200EB800004EB80000B30E5
:100A50004155681CC5B29DF80A00A842EEDC04F5B9
:100A600020742078401C20702078C11700EBD161E1
:100A70004911A0EB41112170A078401CA070A4F591
:100A8000207405B030BD0000006800408C3F00209D
:100A900010B54FF480711B4800F0E4F920B14FF419
:100AA0008071184800F0AEF84FF40071154800F05E
:100AB000D9F920B14FF40071124800F0A3F84FF4B7
:100AC0008061104800F0CEF920B14FF480610D48EC
:100AD00000F098F84FF400610A4800F0C3F920B123
:100AE0004FF40061074800F08DF84FF400410548CD
:100AF00000F0B8F920B14FF40041024800F082F84C
:100B000010BD00000068004030B585B001213B48B1
:100B100000F078F83A4C94F8810294F880128842F8
:100B200063D094F8820200285FD094F8810200EB31
:100B3000800004EB80004068019094F8810200EB93
:100B4000800054F82000009094F8810200EB8000AF
:100B500004EB8000007A18B900208DF8080002E04C
:100B600004208DF8080094F8810200EB800004EB6B
:100B70008000407A18B900208DF8090002E00220B8
:100B80008DF8090094F8810200EB800004EB8000EE
:100B9000807A8DF80A0000250CE094F8810200EBC1
:100BA000800004EB80000B30415D0DF10B004155DE
:100BB000681CC5B29DF80A00A842EEDC69460F48E1
:100BC00000F006FB04F281242078401C207020787D
:100BD000C11700EBD1614911A0EB41112170607880
:100BE000401E6070A4F2812406E0002084F8820296
:100BF00094F8800284F8810205B030BD006800409E
:100C000010420020B1F5007F3AD00FDC202928D017
:100C100006DC01291CD004291DD0082940D11DE083
:100C2000402921D0B1F5807F3AD126E0B1F5004FBF
:100C300031D006DCB1F5806F25D0B1F5006F2FD132
:100C400024E0B1F5803F12D0B1F5003F28D111E08A
:100C5000154A826025E00822C26022E01022C260AC
:100C60001FE0082202611CE01022026119E0082244
:100C7000426016E01022426013E00422426010E05D
:100C8000042242600DE0042242600AE000228261F8
:100C90000422426005E0002282610422426000E0FA
:100CA00000BF00BF704700000101010010B50446FD
:100CB0000B48844209D10121480606F083FC00213B
:100CC0004FF0007006F07EFC08E00121880606F077
:100CD00079FC00214FF0806006F074FC10BD00002C
:100CE0000064004010B50021837A012202FA03F16A
:100CF0003D4A126842F001023B4B1A603A4A1C32EC
:100D000012688A43384B1C331A60027BCAB9364AD0
:100D10000C3212688A43344B0C331A604288C38801
:100D200042EA0343304A4032847A42F8343002883F
:100D3000838842EA03432C4A4032847A02EBC4029D
:100D40005360027B012A19D1274A0C3212680A43E8
:100D5000254B0C331A604288038842EA0343224A37
:100D60004032847A42F83430C288838842EA0343AE
:100D70001D4A4032847A02EBC4025360C27A3AB907
:100D8000194A121D12688A43174B1B1D1A6006E090
:100D9000154A121D12680A43134B1B1D1A60028963
:100DA00032B9114A143212688A430F4B14331A6055
:100DB0000289012A06D10C4A143212680A430A4BEE
:100DC00014331A60427B012A06D1074A1C3212688A
:100DD0000A43054B1C331A60034A126822F00102D1
:100DE000014B1A6010BD00000066004010B50246BD
:100DF000002001F4700343B19369C1F3130423404D
:100E00000BB101202DE000202BE001F0807343B1F5
:100E10005368C1F3130423400BB1012021E00020EB
:100E20001FE001F0006343B19368C1F31304234052
:100E30000BB1012015E0002013E001F0007343B175
:100E4000D368C1F3130423400BB1012009E0002053
:100E500007E01369C1F3130423400BB1012000E044
:100E6000002010BD70B504460D460026606928407C
:100E7000002871D0B5F5807F5CD010DC082D35D00E
:100E800006DC012D20D0022D24D0042D72D127E0C4
:100E9000102D31D0202D35D0402D6BD138E0B5F557
:100EA000004F60D009DCB5F5007F49D0B5F5806F03
:100EB0004CD0B5F5006F5DD14FE0B5F5803F2DD03A
:100EC000B5F5003F56D12FE0A0682D4900F046FD52
:100ED000064651E0E068032100F040FD06464BE085
:100EE000E068082100F03AFD064645E0E068102180
:100EF00000F034FD06463FE02069032100F02EFD9E
:100F0000064639E02069082100F028FD064633E056
:100F10002069102100F022FD06462DE060680821BE
:100F200000F01CFD064627E06068102100F016FD69
:100F3000064621E0A069012100F010FD06461BE0F5
:100F4000A069022100F00AFD064615E0A06904210F
:100F500000F004FD06460FE00FE0A069702100F0EC
:100F6000FDFC064608E06068042100F0F7FC064638
:100F700002E0FFE7002600BF00E00026304670BD1B
:100F8000010101001AB143690B43436102E0436967
:100F90008B434361704730B502460020002314683C
:100FA00024F002041460146844F00104146000E0AA
:100FB0005B1C546804F001041CB94FF6FF74A34293
:100FC000F6D1546804F001040CB900206CE08C796F
:100FD000012C04D1146844F08004146003E0146808
:100FE00024F080041460CC79012C04D1146844F0FE
:100FF0004004146003E0146824F0400414600C7A88
:10100000012C04D1146844F02004146003E0146837
:1010100024F0200414604C7A012C04D1146844F0AC
:101020001004146003E0146824F0100414608C7A37
:10103000012C04D1146844F00804146003E014681F
:1010400024F008041460CC7A012C04D1146844F014
:101050000404146003E0146824F0040414608C7821
:10106000A407CD7844EA05640D7944EA05444D7936
:1010700044EA05540D886D1E2C43D461146824F095
:1010800001041460002300E05B1C546804F00104B8
:101090001CB14FF6FF74A342F6D1546804F001046A
:1010A0000CB1002000E0012030BD10B500F5D87370
:1010B00003EB01131B6803F004031372137A53B993
:1010C00000F5D87303EB01131B6840F2FF7404EAC8
:1010D0005353136009E000F5D87303EB01131B6849
:1010E0006FF0604404EAD303536000F5D87303EB58
:1010F00001131B6803F00203537200F5D87303EB6E
:1011000001135B6803F00F03937200F5D87303EBD0
:1011100001135B681B0AD37400F5D87303EB01134A
:101120009B68D37200F5D87303EB01139B681C0A0C
:10113000147300F5D87303EB01139B681C0C5473F4
:1011400000F5D87303EB01139B681B0E937300F536
:10115000D87303EB0113DB68D37300F5D87303EB8B
:101160000113DB681C0A147400F5D87303EB011338
:10117000DB681C0C547400F5D87303EB0113DB68B7
:101180001B0E937421B9C36843F02003C36003E0CE
:10119000036943F02003036110BD00000B49096897
:1011A00041F00101094A11601146096843F60E72C7
:1011B0009143064A11601146096841EA0021116015
:1011C0001146096821F00101116070470066004076
:1011D00010B502460020936803F08063B3F1806F7E
:1011E00000D110E0936803F00063B3F1006F01D108
:1011F000012008E0936803F08053B3F1805F01D1D0
:10120000022000E00420042874D002F5C07303EB30
:1012100000131B6803F0010402F5C07303EB001315
:101220001C600B7A7BB94B7A0C8843EA445302F575
:10123000C07404EB00142468234302F5C07404EB6B
:101240000014236010E00B7A4C6843EAC4034C7A24
:10125000234302F5C07404EB00142468234302F511
:10126000C07404EB001423608B7A03F00F038B72BD
:1012700002F5C07303EB00135B6823F00F0402F563
:10128000C07303EB00135C6002F5C07303EB001343
:101290005B688C7A234302F5C07404EB001463602E
:1012A0008B7B1C064B7B44EA03440B7B44EA032301
:1012B000CC7A234302F5C07404EB0014A3608B7C4A
:1012C0001C064B7C44EA03440B7C44EA0323CC7B9E
:1012D000234302F5C07404EB0014E36002F5C0730D
:1012E00003EB00131B6843F0010402F5C07303EB2A
:1012F00000131C6010BD10B586B00446002002909B
:1013000001908DF80C008DF80D0002208DF80E0074
:1013100001208DF80F0000218DF8101001A9204642
:1013200000F0BAFA06B010BD38B504460020C4EB90
:10133000C402084B009053F832201178C4EBC40269
:1013400003EBC20292F82C000023082200F03EF9C1
:1013500038BD00006000002038B504460120C4EB11
:10136000C402084B009053F832201178C4EBC40239
:1013700003EBC20292F82C000023082200F026F9A9
:1013800038BD00006000002010B504462048B0F8C9
:10139000740040B900201F4981F82C0000211D482D
:1013A00080F8641007E001201A4981F82C0001211F
:1013B000184880F86410C4EBC401164A02EBC1015E
:1013C00091F82C00FFF797FF052017F001F9204650
:1013D000FFF7AAFF052017F0FBF8C4EBC4000D4A85
:1013E00002EBC00090F82E10204600F00FFA052006
:1013F00017F0EEF8052017F0EBF8052017F0E8F8E5
:10140000052017F0E5F8052017F0E2F810BD000000
:101410006C140020600000202DE9F0418046404619
:1014200001F060FA00F52174404603F091F900B331
:1014300094F8810294F8801288421AD094F88102BC
:1014400000EB800004EB8001404600F04FFA04F20C
:1014500081242078401C20702078C11700EBD161D6
:101460004911A0EB411121706078401E6070A4F218
:101470008124404601F036FA044694F8810294F83B
:101480008012884250D094F8810200EB800004EB77
:10149000800504F281242078401C20702078C11738
:1014A00000EBD1614911A0EB411121706078401E21
:1014B0006070A4F28124287800F0800008B9BDE8AB
:1014C000F081287800F07F0700260AE0C6EBC6000E
:1014D000164951F830000078B84200D103E0701C82
:1014E000C6B2032EF2DB00BF032E00DBE7E7C6EB3C
:1014F000C6000E4901EBC0000D490860022205F14B
:101500000B010C48FEF731FF68B9A87C0002697C2A
:1015100008440002297C08440002E97B084404498D
:101520000968086300BF00BF00BFC8E76000002073
:10153000080100204A0000202DE9F041074600BFC5
:10154000C7EBC700204901EBC006C7EBC70001EBA2
:10155000C0004069008818B1306B4442E51701E0D3
:10156000346BE517306A006800212246A0FB023880
:1015700001FB048105FB00151C46B06900880021B1
:101580002246A0FB02C801FB048105FB001564464E
:10159000F069B0F800C06246002320462946FEF7F5
:1015A0007DFE04460D46F068D0F800C06246002378
:1015B00020462946FEF772FE0446384600F09CF8A5
:1015C0002046BDE8F081000060000020F0B585B045
:1015D00007460E4615461C460020019046F4407012
:1015E000009000208DF808008DF8090008208DF883
:1015F0000A0005EB45001E49085C8DF80B0005EB61
:101600004500084441788DF80C10B4B10A2C0EDB6B
:101610000A2094FBF0F0C1B28DF80D100A2094FB63
:10162000F0F100FB1140C1B28DF80E100AE08DF808
:101630000D4000218DF80E1004E000218DF80D10F2
:101640008DF80E109DF828108DF80F109DF82910B8
:101650008DF810109DF82A108DF811109DF82B10A0
:101660008DF812106946384600F016F905B0F0BD45
:101670002C000020F0B585B007460E4615461C46E6
:1016800046F44070009000208DF808008DF80900A5
:1016900004208DF80A0005EB45001649085C8DF81A
:1016A0000B0005EB4500084441788DF80C10B4B1EF
:1016B0000A2C0EDB0A2094FBF0F0C1B28DF80D105D
:1016C0000A2094FBF0F100FB1140C1B28DF80E101E
:1016D0000AE08DF80D4000218DF80E1004E0002185
:1016E0008DF80D108DF80E106946384600F0D4F8CC
:1016F00005B0F0BD2C00002010B50446C4EBC402B8
:10170000074B53F832201178C4EBC40203EBC2023A
:1017100092F82C0000230A22FFF7ACFF10BD000056
:101720006000002038B504462046FFF7FDFD00208C
:10173000C4EBC402094B009053F832201178C4EB7B
:10174000C40203EBC20292F82C0000230A22FFF726
:101750003DFF2046FFF700FE38BD0000600000207E
:101760002DE9F84304460D46C4EBC400264901EBBD
:10177000C000006AD0F800C0C4EBC40001EBC00098
:10178000C06800680022E917A0FB057902FB0592FA
:1017900001FB0021624600233846FEF77FFD054627
:1017A000C4EBC400184901EBC0004069008800B1D7
:1017B0006D42C4EBC402144B009553F832201178EB
:1017C000C4EBC40203EBC20292F82C0000230622F1
:1017D000FFF7FCFE002600E0761C41F288308642CE
:1017E000FADBC4EBC402084B53F832201178C4EB87
:1017F000C40203EBC20292F82C0000230122FFF77F
:1018000039FF0120BDE8F8836000002038B50446A8
:101810000D46C4EBC402084B009553F832201178F2
:10182000C4EBC40203EBC20292F82C000023102286
:10183000FFF7CCFE38BD00006000002010B5044664
:10184000C4EBC402084B53F832201178C4EBC40235
:1018500003EBC20292F82C0000230122FFF70AFFDB
:10186000052016F0B5FE10BD6000002010B504463E
:10187000C4EBC402074B53F832201178C4EBC40206
:1018800003EBC20292F82C0000230D22FFF7F2FEB8
:1018900010BD00006000002070B505460E4605EB47
:1018A000C50000EB4510104901EB401000F5217414
:1018B00094F8801201EB810104EB8100142231467F
:1018C000FEF72FFD04F520742078401C207020784E
:1018D000C11700EBD1614911A0EB41112170A07833
:1018E000401CA07070BD00006C3A0020F0B585B0BF
:1018F00006460C46C6EBC600174951F820706068D2
:10190000019020680090207A18B900208DF8080016
:1019100002E004208DF80800607A18B900208DF8E4
:10192000090002E002208DF80900A07A8DF80A0073
:10193000002507E004F10B00415D0DF10B0041555E
:10194000681CC5B29DF80A00A842F3DC6946384617
:10195000FFF73EFC05B0F0BD68BE0108024600205E
:1019600002EA01030BB1012000E00020704770473C
:101970002DE9F041044601270025032C07DA04EB8A
:101980004400C0EB84102F4901EB800503E00027E1
:101990003846BDE8F081E86E008808B90020F8E715
:1019A000E96E0978491EC8B200F0A8FF0646012E6C
:1019B00024D1204604F0D6F924B1012C0BD0022CFE
:1019C0001BD111E02048B0F8820040F001001E4910
:1019D000A1F8820011E01C48B0F8820040F002003B
:1019E0001949A1F8820008E01748B0F8820040F0D9
:1019F00004001549A1F8820000BF21E024B1012CA8
:101A00000BD0022C1BD111E00F48B0F8820020F05F
:101A100001000D49A1F8820011E00B48B0F88200E6
:101A200020F002000849A1F8820008E00648B0F85A
:101A3000820020F004000449A1F8820000BF00BF2A
:101A40003846A6E750020020E813002010B5022215
:101A500000210C4800F026F80A4800886E280AD0B9
:101A60006E200849088002220021064800F096F8FE
:101A700000F062F803E000F007F805F0FDFE012039
:101A800010BD0000C606002010B500244FF41472EB
:101A90000221034800F006F80446204610BD00006D
:101AA0006C1400202DE9F04105460E4617464FF014
:101AB0000008002002F066F94FF0A008414600201F
:101AC00002F072F810B90020BDE8F0813112002058
:101AD00002F06AF808B90020F6E7F1B2002002F03F
:101AE00063F808B90020EFE7002002F04BF94FF04F
:101AF000A00848F00101002002F056F808B90020C3
:101B0000E2E7002410E0002001F0AEFF28706D1C19
:101B1000781EA04203D0002001F0FEFF02E000206A
:101B200002F0E8F8601C84B2BC42ECDB002002F05A
:101B30006BF90120C8E7000010B500244FF41472BF
:101B40000221034800F02AF80446204610BD000098
:101B50006C1400202DE9F04704460025B4F5907F71
:101B600002DD0020BDE8F087204600F063FF074655
:101B7000204600F03BFF8146002000F037FFA9EB34
:101B80000000801C86B2204600F030FF80463A46B6
:101B9000314600F003F805462846E3E72DE9F84F03
:101BA00006460C4691460025AA46AB46002000900A
:101BB00004F07F00C0F18005A94501DA09F0FF05B6
:101BC000A9EB0500C0F3C71AA9EB050000F07F0BD5
:101BD000002002F0D7F8A02000900020009901F02A
:101BE000E3FF10B90020BDE8F88F2112002001F0BA
:101BF000DBFF08B90020F6E7E1B2002001F0D4FFD6
:101C000008B90020EFE74FF000080BE03178002022
:101C100001F0CAFF08B90020E5E7761C08F10100D1
:101C20001FFA80F8A845F1DB002002F0EDF8322021
:101C300016F0CEFC00273CE0002002F0A3F8A02024
:101C400000900020009901F0AFFF08B90020CAE71A
:101C50006019802202FB0700C0F30721002001F079
:101C6000A3FF08B90020BEE76019802202FB07002D
:101C7000C1B2002001F098FF08B90020B3E74FF08F
:101C800000080BE03178002001F08EFF08B9002039
:101C9000A9E7761C08F101001FFA80F8B8F1800F5F
:101CA000F0D3002002F0B0F8322016F091FC781C3E
:101CB00087B25745C0DB002002F064F8A0200090F6
:101CC0000020009901F070FF08B900208BE760192F
:101CD000802202FB0700C0F30721002001F064FF0F
:101CE00008B900207FE76019802202FB0700C1B21B
:101CF000002001F059FF08B9002074E74FF00008F8
:101D00000BE03178002001F04FFF08B900206AE7AE
:101D1000761C08F101001FFA80F8D845F1DB00209D
:101D200002F072F8322016F053FC01205BE700004D
:101D300001494861704700000090024029B1064AFD
:101D4000D2690243044BDA6104E0034AD269824358
:101D5000014BDA61704700000090024030B1074942
:101D6000896941F00201054A916105E003498969E9
:101D700021F00201014A9161704700000090024089
:101D800070B50C4613460021124D286000BF18E0C4
:101D900000EB41124FF00045156044F2F4555560D8
:101DA000C1EBC11505EB450504EB850595605D1E8E
:101DB0008D4204D900EB41152035D56000E0D0609C
:101DC000491C9942E4D3044DE860044D044E35604B
:101DD00070BD00005407002000900240547501209F
:101DE0005807002021B1426822F00042426003E01F
:101DF000426842F0004242607047000030B107493B
:101E0000896941F40051054A916105E003498969F6
:101E100021F40051014A9161704700000090024096
:101E200030B50C46134600210F4D286000BF15E069
:101E300000EB41124FF480151560C1EBC11505EBA5
:101E4000450504EB850595605D1E8D4204D900EBC8
:101E500041152035D56000E0D060491C9942E7D398
:101E6000024D286130BD0000500700200090024064
:101E700002680A430260704710B50121480605F068
:101E800081FB00214FF0007005F07CFB10BD01B517
:101E900081B0002000900198009002E00098401E60
:101EA000009000980028F9D10CBD000008B5002072
:101EB00000900848806940F480100649886108460F
:101EC000806900904FF6FF70FFF7E1FF014900982D
:101ED000886108BD00900240014800688068704732
:101EE0005007002001460020034A52690A400AB107
:101EF000012000E0002070470090024000200449CB
:101F0000096801F0010109B1012000E000207047DB
:101F10000090024008B5002000904020FFF7E2FF4B
:101F2000012808D10E48006828B10D4909680868E1
:101F3000694617F0B5F84020FFF7FAFE4FF48030FD
:101F4000FFF7F6FE009848B1009838B14FF0805086
:101F500004490860BFF34F8FBFF36F8F08BD0000C7
:101F6000C806002004ED00E02DE9F04188B00446E9
:101F70000F464FF00008002500200790B94E029050
:101F800001200190B848056925F01C0503A805F05B
:101F90006BFB049EB548864205D3B548864202D203
:101FA00045F008051AE0B248864205D3AD4886429E
:101FB00002D245F00C0511E0AA48864203D3AD4891
:101FC000864200D20AE0AB48864205D3AA48864240
:101FD00002D245F0040501E045F01005A248056174
:101FE0004FF400420021384600F0D8FA10B9002022
:101FF00001906AE0A148FFF74AFF2068002850D00E
:1020000000BF0298401C02900121384600F09AF966
:1020100000F0040018B99A4902988842F1D398490F
:102020000298884202D1002001904EE000200290E8
:102030004FF480520021384600F0B0FA08B9002071
:10204000019000BF0298401C02900121384600F028
:1020500079F900F0200018B9894902988842F1D333
:1020600087490298884202D1002001902DE000208B
:1020700002900121384600F065F9804608F4A0403E
:1020800018B14FF40060206201E00020206208F4E3
:10209000C04018B14FF48040606115E000206061DD
:1020A00012E0206AC0F3CF006169C1F34F0140EA3A
:1020B00001020021384600F071FA08B900200190B1
:1020C0006FF07F40FFF7E3FE00BF019820B94FF4A7
:1020D00000602062C000606163480568694805408F
:1020E000D4E901010843E1680843216908436169B3
:1020F0000843A1690843E1690843216A0843616A0A
:102100000843A16A0843E16A0843216B0843616BF5
:10211000084305435448056005684FF6FF70FFF714
:10212000B6FE51480560D4E90E010843216C08430E
:10213000616C0843A16C0843E16C0843216D0843BE
:10214000616D084348494860084645684FF6FF708E
:10215000FFF79DFE444845604349A06D8860E06DEF
:10216000C860084685694FF641700540B4F86010B4
:10217000606E40EA0140A16E0843E16E0843216FA2
:102180000843616F084305433748856185694FF609
:10219000FF70FFF77CFE34488561D4E91E010843D7
:1021A0003149C8610846C5694FF6FF70FFF76FFEF9
:1021B0002D48C5613448856934480540D4E920017B
:1021C0000843D4F888100843D4F88C100843D4F896
:1021D00090100843D4F894100843D4F8981008439A
:1021E000D4F89C100843D4F8A010084305432648AF
:1021F000856185694FF6FF70FFF749FE22488561CA
:10220000D4E929010843D4F8AC100843D4F8B0103D
:102210000843D4F8B41040EA8100D4F8B810084359
:1022200040F4000018490860084605684FF6FF7042
:10223000FFF72DFE14480560006840F08000124949
:102240000860084605684FF6FF70FFF720FE0E484D
:1022500005600198012802D108B0BDE8F081002096
:10226000FAE700000087930300800240002D31014F
:10227000C00E160200E1F50580D1F008FFFF0F0047
:10228000FFFF04000F8120FF00900240233FDEF893
:1022900010B50B794C7943EA0422094B03441A64C4
:1022A000CB781B068C7843EA04434C7843EA04233A
:1022B0000C7843EA0402024B03445A6410BD000048
:1022C0000080024008B501460020009031B10C4862
:1022D000006840F004000A4A106005E00848006801
:1022E00020F00400064A10600548006800904FF690
:1022F000FF70FFF7CCFD024A0098106008BD000097
:102300000080024008B501460020009031B10C4821
:10231000006840F008000A4A106005E008480068BC
:1023200020F00800064A10600548006800904FF64B
:10233000FF70FFF7ACFD024A0098106008BD000076
:102340000080024018B502460B4600210020009094
:102350001548016901F01C014FF4784000EAC220E1
:1023600001434FF4F86000EA8310014321F00201B9
:1023700041F001010C48016100BF0098401C009031
:102380000948016901F0010018B1084C0098A04209
:10239000F3D3064C0098A04201D1002018BD02489A
:1023A000406980B2FAE7000000800240FFFF0400AD
:1023B0001EB500210022009201920292214A126869
:1023C000126802F0004282B1002200921E4A526955
:1023D00002F0800222B180221B4B5A6100229A60D7
:1023E0009DE81C0080E81C001EBD164A1268126899
:1023F00002F40042B2B9134A1268126802F4807201
:1024000082B1104A1268126802F4007252B10D4A89
:1024100012681268C2F30D42111F0A4A12689268CC
:10242000019200E000210091064A12680292054ADA
:102430001268D268034B1A609DE81C0080E81C00FB
:1024400000BFD1E754070020009002400348006815
:1024500040F0010001490860704700000090024010
:1024600000B50120FFF74EFF0120FFF72BFFFFF71C
:102470001DFD0120FFF7C2FC0120FFF76FFC00BD2E
:1024800001210160002141608160C16001614FF460
:102490008041416100218161C1614FF400610162AD
:1024A000002141628162C162016341638163C16352
:1024B000402101642021416400218164C1640165DF
:1024C00041658165C16501668021416600218166A3
:1024D000C166016741678167C1674FF08061C0F8DD
:1024E00080104910C0F884100021C0F888104FF403
:1024F0000011C0F88C100021C0F89010C0F89410A2
:10250000C0F89810C0F89C10C0F8A0104FF00071EF
:10251000C0F8A4104912C0F8A8108901C0F8AC1086
:102520004912C0F8B0100021C0F8B410C0F8B810BB
:1025300070470000014617480068006800F000403E
:1025400008B100207047C1F30C00124A12685060B5
:1025500010480068006840F040500E4A1268106051
:102560000C480068006840F000400A4A1268106099
:102570000948406900F0040020B10420064A506177
:102580000020506003480068C068024A10600120C3
:10259000D8E70000500700200090024038B50346FD
:1025A0000C460021002000901448016901F01C0134
:1025B0004FF4784000EAC32001434FF4F86000EA8A
:1025C0008410014341F0020141F001010B484261D6
:1025D000016100BF0098401C00900848016901F0AB
:1025E000010018B1064D0098A842F3D3044D00989D
:1025F000A84201D1002038BD0120FCE70080024044
:10260000FFFF04007CB50024012005F07BFA0320C5
:102610008DF8050002208DF8040000208DF80600DA
:102620008DF8070000BF16E0234800EBC400808847
:102630000090214951F83400694600F09EF81E4A86
:1026400002EBC402D1881C4A52F834000B2200F07D
:10265000DCF8601CC4B20A2CE6DB00208DF8040014
:1026600002208DF807001448B0F84C000090124981
:10267000886C694600F081F801208DF804000E484E
:10268000B0F8540000900C49086D694600F075F8E8
:10269000094AB2F85410106D00F0ECF8002500E083
:1026A0006D1C06488542FBD3034AB2F85410106DE6
:1026B00000F0E2F87CBD0000A0BE0108FFFF0300AF
:1026C00010B5B0B0FFF7D8FBFFF7C0FE00BFFFF7B3
:1026D00015FC0128FBD001A8FFF7D2FE01200190D4
:1026E000002008904FF400700B9000200C900F9089
:1026F00012901490159016904FF480600A9000206C
:1027000021904FF00070229000112490002026901C
:10271000279004202990C0052A9040122B90800118
:102720002C9040122D9040002F90002101A8FFF71F
:102730001BFCC4B2012C03D101210248FFF7FEFAB1
:1027400030B010BD4000010010B5FFF75BFF00F096
:1027500003F8FFF7B5FF10BD08B53D208DF8000068
:1027600008208DF8010000208DF8020001208DF86E
:102770000300684603F098FC08BDF0B50A46002146
:102780000023002400BF3DE0012505FA01F3156890
:1027900005EA03049C4234D105684F000326BE407D
:1027A000B543056015794E00B540066835430560B0
:1027B0001579012D02D01579022D16D185684F00AB
:1027C0000326BE40B543856055794E00B540866806
:1027D00035438560456801268E40B54345604568B0
:1027E00096798E40B6B235434560C5684F000326E2
:1027F000BE40B543C560D5794E00B540C668354387
:10280000C560491C1029BFD3F0BDF0B500230024DA
:102810004D07ED0E02FA05F3CE1000F1200555F834
:1028200026504E07F70E0F26BE40B543CF1000F1DD
:10283000200646F82750CE1000F1200555F8265006
:1028400045EA0304CE1000F1200545F82640F0BD0E
:102850000246002013690B400BB1012000E000206C
:1028600070470246002053690B400BB1012000E085
:10287000002070474183704701837047F0B50246DE
:102880000D46FF21FF2409E012F8016B86EA0403DC
:10289000074EF65C86EA0104064EF15C2E1EA5F199
:1028A0000107BDB2F0D1084604EB0026B0B2F0BD7E
:1028B00044BB010844BC0108014601EB4100024A47
:1028C00052F830007047000090980108014601EB73
:1028D0004100034A02EBC000008A80B2704700004A
:1028E00090980108014601EBC10000EB4110024A3B
:1028F00002EB4010704700006C3A0020014605488A
:10290000008E01228A40104008B10120704700204B
:10291000FCE70000E813002070B504460025032CF6
:1029200007DA04EB4400C0EB8410094901EB800591
:1029300001E0002070BD286E008808B90020F9E78A
:10294000296E0978491EC8B2FFF7D8FFF2E70000E8
:1029500050020020014601EB4100054A02EBC00095
:10296000808A00F4005008B1012070470020FCE785
:10297000909E010870B504460025032C07DA04EB8D
:102980004400C0EB8410094901EB800501E0002000
:1029900070BDA86E008808B90020F9E7A96E097813
:1029A000491EC8B2FFF7AAFFF2E70000500200205C
:1029B00070B504460025032C07DA04EB4400C0EB95
:1029C0008410094901EB800501E0002070BD686EAC
:1029D000008808B90020F9E7696E0978491EC8B275
:1029E000FFF78CFFF2E70000500200200146B1F52E
:1029F000907F05DC01EB4100024A52F8300070473D
:102A00000020FCE7909E0108014601EB4100024ACC
:102A100052F8300070470000909E0108014601EB1B
:102A20004100034A02EBC000008A80B270470000F8
:102A3000909E0108014602204A1C91B20EE001EB73
:102A40004102094B03EBC202928A02F4805212B98E
:102A5000821CD0B200E005E04A1C91B240F2211283
:102A60009142ECD100BF7047909E01080148006878
:102A7000704700000C00002070B50446FFF7F6FF19
:102A80000546207802280ED1A068A84202D8A06886
:102A9000281A03E0A068C0F1FF302844616888422A
:102AA00001D303202070207870BD0000014601EBA7
:102AB000810000EBC110024A02EBC0007047000029
:102AC000D81600200146084600E048404A08111E7A
:102AD000FBD170472DE9F04705462846FFF7E6FF92
:102AE00006463446B4F800020A2870DB0020A4F839
:102AF0000402B4F80402205C592849D1B4F8041245
:102B0000481CC11700EBD1514912A0EB4121615C77
:102B1000792929D14FF00A08C5EBC5002D4901EBF1
:102B20004009002717E0B4F80402205C89F800008F
:102B300009F10109B4F80402401CA4F80402B4F835
:102B40000402C11700EBD1514912A0EB4121A4F8B6
:102B50000412781C87B24745E5DBB4F80002A0EB0D
:102B60000800A4F8000226E004F50074A088801C88
:102B7000A080A088C11700EBD1514912A0EB4121E0
:102B8000A1802088801E2080A4F50074BDE8F08715
:102B900004F50074A088401CA080A088C11700EB39
:102BA000D1514912A0EB4121A1802088401E2080F4
:102BB000A4F50074EAE7C5EBC501064A02EB410043
:102BC00003F06EFC012802D0002086F80E0400BF3E
:102BD000DCE70000B81200202DE9F04704460E465D
:102BE00017469846E448C56B112E7DD1002D7CDB3D
:102BF000E24895FBF0F0012840DBE04895FBF0F05F
:102C0000303004EB0411DE4A1144C871DB4895FBF7
:102C1000F0F100FB1150DB4990FBF1F03030C1B214
:102C200004EB041010440172D64895FBF0F100FB50
:102C3000115042F2107190FBF1F03030C1B204EB50
:102C400004101044417242F2107095FBF0F100FB49
:102C500011504FF47A7190FBF1F03030C1B204EBB7
:102C600004101044817204EB041011460844C31D83
:102C700004224146384606F078FD7BE1C14895FBC9
:102C8000F0F0012835DBBF4895FBF0F0303004EB65
:102C90000411BB4A1144C871BA4895FBF0F100FB1E
:102CA000115042F2107190FBF1F03030C1B204EBE0
:102CB00004101044017242F2107095FBF0F100FB19
:102CC00011504FF47A7190FBF1F03030C1B204EB47
:102CD00004101044417204EB041011460844C31D53
:102CE00003224146384601E039E159E006F03DFD56
:102CF00040E142F2107095FBF0F0012824DB42F233
:102D0000107095FBF0F0303004EB04119C4A114434
:102D1000C87142F2107095FBF0F100FB11504FF4B6
:102D20007A7190FBF1F03030C1B204EB0410104422
:102D3000017204EB041011460844C31D02224146EF
:102D4000384606F012FD15E14FF47A7095FBF0F06D
:102D5000012814DB4FF47A7095FBF0F0303004EB6F
:102D60000411874A1144C87104EB04101146084449
:102D7000C31D01224146384606F0F7FCFAE0302038
:102D800004EB04117E4A1144C87104EB041011468F
:102D90000844C31D01224146384606F0E6FCE9E03E
:102DA0002D2004EB0411764A1144C8716D4273481A
:102DB00095FBF0F0012840DB704895FBF0F03030D7
:102DC000C1B204EB0410104401726C4895FBF0F1A1
:102DD00000FB11506B4990FBF1F03030C1B204EBB5
:102DE000041010444172674895FBF0F100FB11504C
:102DF00042F2107190FBF1F03030C1B204EB0410DC
:102E00001044817242F2107095FBF0F100FB1150FA
:102E10004FF47A7190FBF1F03030C1B204EB041042
:102E20001044C17204EB041011460844C31D05226E
:102E30004146384606F099FC9CE0524895FBF0F07C
:102E4000012833DB4F4895FBF0F03030C1B204EB82
:102E500004104B4A104401724A4895FBF0F100FB04
:102E6000115042F2107190FBF1F03030C1B204EB1E
:102E700004101044417242F2107095FBF0F100FB17
:102E800011504FF47A7190FBF1F03030C1B204EB85
:102E900004101044817204EB041011460844C31D51
:102EA00004224146384606F060FC63E042F21070AE
:102EB00095FBF0F0012825DB42F2107095FBF0F055
:102EC0003030C1B204EB04102D4A1044017242F2BA
:102ED000107095FBF0F100FB11504FF47A7190FBEC
:102EE000F1F03030C1B204EB04101044417204EB35
:102EF000041011460844C31D03224146384606F01B
:102F000034FC37E04FF47A7095FBF0F0012815DBC4
:102F10004FF47A7095FBF0F03030C1B204EB04103E
:102F2000174A1044017204EB041011460844C31DF3
:102F300002224146384606F018FC1BE0302004EB24
:102F400004110F4A1144C87104EB041011460844DF
:102F5000C31D01224146384606F007FC0AE0132E45
:102F600008D14FF47A7095FBF0F94A46414638464D
:102F700004F01CFFBDE8F087E813002040420F007A
:102F8000C0110020A08601002DE9F04704460E463E
:102F900017469846E448456C112E7DD1002D7CDB08
:102FA000E24895FBF0F0012840DBE04895FBF0F0AB
:102FB000303004EB0411DE4A1144C871DB4895FB44
:102FC000F0F100FB1150DB4990FBF1F03030C1B261
:102FD00004EB041010440172D64895FBF0F100FB9D
:102FE000115042F2107190FBF1F03030C1B204EB9D
:102FF00004101044417242F2107095FBF0F100FB96
:1030000011504FF47A7190FBF1F03030C1B204EB03
:1030100004101044817204EB041011460844C31DCF
:1030200004224146384606F0A0FB7BE1C14895FBEF
:10303000F0F0012835DBBF4895FBF0F0303004EBB1
:103040000411BB4A1144C871BA4895FBF0F100FB6A
:10305000115042F2107190FBF1F03030C1B204EB2C
:1030600004101044017242F2107095FBF0F100FB65
:1030700011504FF47A7190FBF1F03030C1B204EB93
:1030800004101044417204EB041011460844C31D9F
:1030900003224146384601E039E159E006F065FB7C
:1030A00040E142F2107095FBF0F0012824DB42F27F
:1030B000107095FBF0F0303004EB04119C4A114481
:1030C000C87142F2107095FBF0F100FB11504FF403
:1030D0007A7190FBF1F03030C1B204EB041010446F
:1030E000017204EB041011460844C31D022241463C
:1030F000384606F03AFB15E14FF47A7095FBF0F094
:10310000012814DB4FF47A7095FBF0F0303004EBBB
:103110000411874A1144C87104EB04101146084495
:10312000C31D01224146384606F01FFBFAE030205D
:1031300004EB04117E4A1144C87104EB04101146DB
:103140000844C31D01224146384606F00EFBE9E063
:103150002D2004EB0411764A1144C8716D42734866
:1031600095FBF0F0012840DB704895FBF0F0303023
:10317000C1B204EB0410104401726C4895FBF0F1ED
:1031800000FB11506B4990FBF1F03030C1B204EB01
:10319000041010444172674895FBF0F100FB115098
:1031A00042F2107190FBF1F03030C1B204EB041028
:1031B0001044817242F2107095FBF0F100FB115047
:1031C0004FF47A7190FBF1F03030C1B204EB04108F
:1031D0001044C17204EB041011460844C31D0522BB
:1031E0004146384606F0C1FA9CE0524895FBF0F0A3
:1031F000012833DB4F4895FBF0F03030C1B204EBCF
:1032000004104B4A104401724A4895FBF0F100FB50
:10321000115042F2107190FBF1F03030C1B204EB6A
:1032200004101044417242F2107095FBF0F100FB63
:1032300011504FF47A7190FBF1F03030C1B204EBD1
:1032400004101044817204EB041011460844C31D9D
:1032500004224146384606F088FA63E042F21070D4
:1032600095FBF0F0012825DB42F2107095FBF0F0A1
:103270003030C1B204EB04102D4A1044017242F206
:10328000107095FBF0F100FB11504FF47A7190FB38
:10329000F1F03030C1B204EB04101044417204EB81
:1032A000041011460844C31D03224146384606F067
:1032B0005CFA37E04FF47A7095FBF0F0012815DBEB
:1032C0004FF47A7095FBF0F03030C1B204EB04108B
:1032D000174A1044017204EB041011460844C31D40
:1032E00002224146384606F040FA1BE0302004EB4B
:1032F00004110F4A1144C87104EB0410114608442C
:10330000C31D01224146384606F02FFA0AE0132E6B
:1033100008D14FF47A7095FBF0F94A464146384699
:1033200004F044FDBDE8F087E813002040420F00A0
:10333000C0110020A08601002DE9F04704460E468A
:1033400017469846FE48C56C002D05DB48F6A040A0
:1033500095FBF0F100FB1155002D06DA48F6A04070
:1033600095FBF0F100FB11504542112E7DD1002D4F
:103370007CDB44F25060854278DA42F2107095FBB3
:10338000F0F0012846DB42F2107095FBF0F030308F
:1033900004EB0411EB4A1144C87142F2107095FB22
:1033A000F0F100FB11504FF47A7190FBF1F03030E6
:1033B000C1B204EB0410104401724FF47A7095FB13
:1033C000F0F100FB1150642190FBF1F03030C1B2FC
:1033D00004EB0410104441722E2104EB041010443D
:1033E0008172642095FBF0F100FB11500A2190FBE3
:1033F000F1F03030C1B204EB04101044C17204EBA0
:10340000041011460844C31D05224146384606F003
:10341000ACF9B0E24FF47A7095FBF0F0012839DB9B
:103420004FF47A7095FBF0F0303004EB0411C54A8C
:103430001144C8714FF47A7095FBF0F100FB115004
:10344000642190FBF1F03030C1B204EB0410104461
:1034500001722E2104EB041010444172642095FB8C
:10346000F0F100FB11500A2101E07AE239E090FB13
:10347000F1F03030C1B204EB04101044817204EB5F
:10348000041011460844C31D04224146384606F084
:103490006CF970E2642095FBF0F0303004EB04111D
:1034A000A84A1144C8712E2104EB04101044017283
:1034B000642095FBF0F100FB11500A2190FBF1F024
:1034C0003030C1B204EB04101044417204EB04101C
:1034D00011460844C31D03224146384606F045F90B
:1034E00049E2002D7DDA984885427ADD2D2004EBF3
:1034F0000411944A1144C8716D4242F2107095FB58
:10350000F0F0012846DB42F2107095FBF0F030300D
:10351000C1B204EB04101044017242F2107095FB2A
:10352000F0F100FB11504FF47A7190FBF1F0303064
:10353000C1B204EB0410104441724FF47A7095FB51
:10354000F0F100FB1150642190FBF1F03030C1B27A
:1035500004EB0410104481722E2104EB041010447B
:10356000C172642095FBF0F100FB11500A2190FB21
:10357000F1F03030C1B204EB04101044017304EBDD
:10358000041011460844C31D06224146384606F081
:10359000ECF8F0E14FF47A7095FBF0F0012839DB9C
:1035A0004FF47A7095FBF0F03030C1B204EB0410A8
:1035B000644A104401724FF47A7095FBF0F100FBFD
:1035C0001150642190FBF1F03030C1B204EB0410D3
:1035D000104441722E2104EB0410104481726420C7
:1035E00000E03FE095FBF0F100FB11500A2190FB59
:1035F000F1F03030C1B204EB04101044C17204EB9E
:10360000041011460844C31D05224146384606F001
:10361000ACF8B0E1642095FBF0F03030C1B204EBBF
:103620000410484A104401722E2104EB0410104487
:103630004172642095FBF0F100FB11500A2190FBD0
:10364000F1F03030C1B204EB04101044817204EB8D
:10365000041011460844C31D04224146384606F0B2
:1036600084F888E144F2506085426FDD2D2004EB40
:103670000411344A1144C87148F6A040451B42F277
:10368000107095FBF0F0012846DB42F2107095FBBC
:10369000F0F03030C1B204EB04101044017242F279
:1036A000107095FBF0F100FB11504FF47A7190FB14
:1036B000F1F03030C1B204EB0410104441724FF409
:1036C0007A7095FBF0F100FB1150642190FBF1F052
:1036D0003030C1B204EB0410104481722E2104EB8F
:1036E00004101044C172642095FBF0F100FB1150EE
:1036F0000A2190FBF1F03030C1B204EB0410104409
:10370000017304EB041011460844C31D072241460F
:10371000384606F02AF82EE14FF47A7095FBF0F067
:1037200001283FDB4FF47A7095FBF0F03030C1B2E6
:1037300004EB0410034A104401724FF47A7006E05F
:10374000E8130020C0110020B0B9FFFF52E095FB44
:10375000F0F100FB1150642190FBF1F03030C1B268
:1037600004EB0410104441722E2104EB04101044A9
:103770008172642095FBF0F100FB11500A2190FB4F
:10378000F1F03030C1B204EB04101044C17204EB0C
:10379000041011460844C31D05224146384605F071
:1037A000E4FFE8E0642095FBF0F03030C1B204EBB8
:1037B0000410724A104401722E2104EB04101044CC
:1037C0004172642095FBF0F100FB11500A2190FB3F
:1037D000F1F03030C1B204EB04101044817204EBFC
:1037E000041011460844C31D04224146384605F022
:1037F000BCFFC0E0624885428DDA48F6A04005442F
:1038000042F2107095FBF0F0012846DB42F2107096
:1038100095FBF0F0303004EB0411584A1144C871A4
:1038200042F2107095FBF0F100FB11504FF47A71E9
:1038300090FBF1F03030C1B204EB0410104401727F
:103840004FF47A7095FBF0F100FB1150642190FB6E
:10385000F1F03030C1B204EB0410104441722E215B
:1038600004EB041010448172642095FBF0F100FB1E
:1038700011500A2190FBF1F03030C1B204EB04107A
:103880001044C17204EB041011460844C31D052204
:103890004146384605F069FF6DE04FF47A7095FBBC
:1038A000F0F0012836DB4FF47A7095FBF0F0303001
:1038B00004EB0411314A1144C8714FF47A7095FB3E
:1038C000F0F100FB1150642190FBF1F03030C1B2F7
:1038D00004EB0410104401722E2104EB0410104478
:1038E0004172642095FBF0F100FB11500A2190FB1E
:1038F000F1F03030C1B204EB04101044817204EBDB
:10390000041011460844C31D04224146384605F000
:103910002CFF30E0642095FBF0F0303004EB041114
:10392000164A1144C8712E2104EB04101044017290
:10393000642095FBF0F100FB11500A2190FBF1F09F
:103940003030C1B204EB04101044417204EB041097
:1039500011460844C31D03224146384605F005FFC1
:1039600009E0132E07D1642095FBF0F94A46414641
:10397000384604F01BFABDE8F0870000C0110020B3
:10398000B0B9FFFF2DE9F04106460F463046FFF77C
:103990008DF805462C46B4F80002801E205CFF28F6
:1039A00016D1B4F80002401E205CFF2810D1B4F8F4
:1039B0000012204602F0FEFD0021B4F80002401E75
:1039C0002154B4F80002801E21540020A4F8000203
:1039D000BDE8F08100BFFEE77CB5044600208DF80D
:1039E000050001208DF8040000208DF8060001205C
:1039F0008DF807001B4800EB0410808800901949DF
:103A000001EB041108686946FEF7B7FE154A02EBA0
:103A100004129188134A02EB04121068FEF72CFF7F
:103A200001208DF806000F4800EB041080890090FB
:103A30000C4901EB041188686946FEF79EFE094AAD
:103A400002EB04129189074A02EB04129068FEF718
:103A500013FF002502E000BF681CC5B2382DFADB59
:103A60007CBD000058BE01082DE9FC410446002041
:103A70008DF805008DF80400264800EB04108089BD
:103A80000090244901EB041188686946FEF775FE31
:103A9000002739E07006060E002502E000BF681C12
:103AA000C5B2382DFADB1B4A02EB04129188194A81
:103AB00002EB04121068FEF7DFFE002502E000BFF3
:103AC000681CC5B2382DFADB124A02EB0412918948
:103AD000104A02EB04129068FEF7BAFE08B1701C9F
:103AE000C6B20C4A02EB041291880A4A02EB041295
:103AF0001068FEF7BFFE002502E000BF681CC5B2DB
:103B0000382DFADB781CC7B2082FC3DB3046BDE87E
:103B1000FC81000058BE01087CB5044600208DF8E9
:103B20000500204800EB04108089009001208DF8EA
:103B300004008DF806008DF807001A4901EB041106
:103B400088686946FEF719FE164A02EB041291894D
:103B5000144A02EB04129068FEF78CFE114A02EB45
:103B6000041291880F4A02EB04121068FEF784FEDB
:103B7000002502E000BF681CC5B2382DFADB094AF7
:103B800002EB04129188074A02EB04121068FEF758
:103B900071FE002502E000BF681CC5B2382DFADBBB
:103BA0007CBD000058BE01082DE9FC4104460E46CC
:103BB0004FF0010800208DF8050001208DF8040069
:103BC0008DF806008DF80700494800EB0410808945
:103BD0000090002744E006F0800050B1444A02EB18
:103BE00004129189424A02EB04129068FEF744FEE7
:103BF00009E03F4A02EB041291893D4A02EB0412AC
:103C00009068FEF737FE7006060E002502E000BF42
:103C1000681CC5B2382DFADB354A02EB04129188D4
:103C2000334A02EB04121068FEF726FE002502E07C
:103C300000BF681CC5B2382DFADB2D4A02EB041216
:103C400091882B4A02EB04121068FEF713FE002540
:103C500002E000BF681CC5B2382DFADB781CC7B281
:103C6000082FB8DB00208DF80400214901EB041176
:103C700088686946FEF781FD1D4A02EB04129188AF
:103C80001B4A02EB04121068FEF7F6FD002502E065
:103C900000BF681CC5B2382DFADB154A02EB0412CE
:103CA0009189134A02EB04129068FEF7D1FD08B126
:103CB0004FF000080E4A02EB041291880C4A02EB06
:103CC00004121068FEF7D6FD002502E000BF681C54
:103CD000C5B2382DFADB01208DF80400044901EB50
:103CE000041188686946FEF748FD4046BDE8FC813E
:103CF00058BE01087CB5044600208DF80500204818
:103D000000EB04108089009001208DF804008DF8EC
:103D100006008DF807001A4901EB0411886869460E
:103D2000FEF72BFD164A02EB04129189144A02EBAE
:103D300004129068FEF7A0FD114A02EB041291886C
:103D40000F4A02EB04121068FEF796FD002502E010
:103D500000BF681CC5B2382DFADB094A02EB041219
:103D60009188074A02EB04121068FEF783FD0025D4
:103D700002E000BF681CC5B2382DFADB7CBD000034
:103D800058BE010870B504461E4A02EB0412918920
:103D90001C4A02EB04129068FEF76EFD194A02EB12
:103DA00004129188174A02EB04121068FEF764FDB2
:103DB000002502E000BF681CC5B2382DFADB114AAD
:103DC00002EB041291890F4A02EB04129068FEF78D
:103DD00051FD002502E000BF681CC5B2382DFADB9A
:103DE000084A02EB04129188064A02EB041210689A
:103DF000FEF740FD002502E000BF681CC5B2382D6B
:103E0000FADB70BD58BE010870B50446194A02EBD2
:103E100004129189174A02EB04129068FEF72AFDFA
:103E2000002502E000BF681CC5B2382DFADB114A3C
:103E300002EB041291880F4A02EB04121068FEF79D
:103E40001BFD002502E000BF681CC5B2382DFADB5F
:103E5000084A02EB04129189064A02EB04129068A8
:103E6000FEF70AFD002502E000BF681CC5B2382D30
:103E7000FADB70BD58BE01087CB500242F4890F8CD
:103E800070002F4908702D4890F8740048702B4836
:103E900090F876008870052129488180274890F89D
:103EA000720027498871254890F8780008722348E5
:103EB00090F87C1022484172204890F87E102048EB
:103EC0008172052181811D4890F87A101C48817308
:103ED00000BF30E01A4810F8340050B3184800EB27
:103EE000C400811C204600F02FF804EB4400154963
:103EF00001EBC000406904EB4401124A02EBC1012E
:103F0000096904EB4405164606EBC505CDE900102A
:103F1000EB6804EB440506EBC5052A8904EB440570
:103F200006EBC505696804EB440556F8350015F045
:103F30006DF9601CC4B2022CCCDB7CBD6C1400207B
:103F40006611002060980108FEB505460E46C5EBD7
:103F5000C5003A4901EB800402208DF80900208A4F
:103F6000019002208DF8080000208DF80A00012041
:103F70008DF80B0001A9E068FEF7FFFB2279618A4A
:103F8000E068FEF742FC208B019002208DF80800CB
:103F900000208DF80A0001208DF80B0001A960694E
:103FA000FEF7EBFB2279618B6069FEF72EFC314650
:103FB000284603F021FE05EBC50101EB4511204A1F
:103FC00002EB41104FF4A161FCF7C4F9002005EBAE
:103FD000C50101EB45111A4A02EB411181F80805B0
:103FE000718805EBC50202EB4512154B03EB42123B
:103FF00002F5A26000F0A0FBA0798DF8000002207D
:104000008DF8010000208DF8020001208DF80300DA
:10401000684602F049F8207A8DF80000684602F000
:1040200043F8A07A8DF80000684602F03DF80122BE
:1040300013212068FCF7A6FF0120FEBD68BE010821
:104040006C3A002010B50020FFF7C6FC4FF4157144
:104050000148FCF77FF910BD183800207CB500241A
:104060007BE0C4EBC4003E4951F8300000880028D2
:1040700071D0C4EBC40001EBC00040680088012887
:1040800004D0022803D003281DD10EE000BF35481C
:10409000C4EBC401324A02EBC10108633248C4EBED
:1040A000C40102EBC10148631AE02E48C4EBC4010D
:1040B0002B4A02EBC10108632B48C4EBC40102EB9D
:1040C000C10148630CE00020C4EBC401244A02EBA8
:1040D000C1010863C4EBC40102EBC101486300BF26
:1040E00000BFC4EBC4001E4901EBC000006B38B137
:1040F000C4EBC4000A4602EBC000016B20468847AF
:10410000C4EBC400164901EBC000406B18B304EBCC
:104110004400164901EBC000406904EB4401134A16
:1041200002EBC101096904EB4405164606EBC5051F
:10413000CDE90010EB6804EB440506EBC5052A89C0
:1041400004EB440506EBC505696804EB440556F825
:10415000350015F05BF8601CC4B2022C81DB7CBD1D
:10416000D8010020A57800080D79000864BA01087C
:1041700010B5002400BF09E02046FEF7A7FB034668
:104180002046FEF799FB0380601C84B2402CF3DBD1
:10419000002409E02046FEF741FC03462046FEF7D6
:1041A00033FC0380601C84B2B4F5907FF2DD06A27C
:1041B00008A1094805F016FB08A206A106480C3024
:1041C00005F010FB10BD0000417072202034203239
:1041D0003031390025730000EE13002032303A35BB
:1041E000333A32300000000000B587B000210846A5
:1041F00013F0A4FB0D4806906FF07F4005900C482B
:1042000004900C480C49002204ABCDE90021029037
:1042100005AA06A909480CF0E9F908480CF0A6FA25
:1042200006480CF0E5FA07B000BD0000C0A8147AFB
:10423000C0A814010D7B010849C2000878110020B4
:1042400008B501204FF47A7300220349009003A0BF
:104250000EF0E6FB08BD0000214A00084D6F6462C5
:1042600075735463705365727665725461736B0035
:104270007CB50024D3480078D3490870D148007930
:104280004870D048C088D14951F82000CE494860D4
:10429000CC48017ACC480172CA48817ACA48417236
:1042A000C848017BC848817205218181C548807852
:1042B000C549087400204874C248807B0875C1480D
:1042C000817CC1484175BF48808AC04951F820109F
:1042D000BD488161BB48817DBB480177B948017EFB
:1042E000B9484177B748817EB74881770521018475
:1042F000B448017CB44880F82410002180F82510CF
:10430000B048007FB04981F82800AE4890F82010EE
:10431000AD4880F82910AB48408CAC4951F82010CA
:10432000A948C162A74890F82410A74880F8301027
:10433000A44890F82610A44880F83110A14890F8BD
:104340002810A14880F83210052181869D48817F80
:104350009D4880F83810002180F83910994890F86D
:104360002A00994981F83C00964890F82E1096480A
:1043700080F83D109348008E944951F820109248DF
:104380000164904890F832108F4880F844108D48AE
:1043900090F834108C4880F845108A4890F8361010
:1043A000894880F846100521A0F84810854890F803
:1043B0002C10854880F84C10002180F84D10814861
:1043C00090F83800804981F850007E4890F83C1001
:1043D0007D4880F851107B48C08F7C4951F82010EF
:1043E00079484165774890F84010774880F8581030
:1043F000744890F84210744880F85910714890F849
:104400004410714880F85A100521A0F85C106D48DE
:1044100090F83A106C4880F86010002180F8611024
:10442000684890F84600684981F86400654890F84B
:104430004A10654880F865106248B0F84C0063493E
:1044400051F82010604881665E4890F84E105E4832
:1044500080F86C105B4890F850105B4880F86D1045
:10446000584890F85210584880F86E100521A0F86E
:104470007010544890F84810534880F87410002188
:1044800080F875104F4890F854004F4981F8780033
:104490004C4890F858104C4880F879104948B0F8CA
:1044A0005A004A4951F820104748C167454890F8DA
:1044B0005C10454880F88010424890F85E104248F1
:1044C00080F881103F4890F860103F4880F88210D3
:1044D0000521A0F884103B4890F856103A4880F81F
:1044E0008810002180F88910364890F8620036491B
:1044F00081F88C00334890F86610334880F88D10AE
:104500003048B0F86800314951F820102E48C0F802
:1045100090102C4890F86A102B4880F89410294885
:1045200090F86C10284880F89510264890F86E1086
:10453000254880F896100521A0F89810214890F899
:104540006410214880F89C10002180F89D1000BF65
:1045500034E004EB84001C4911F8200060B304EB44
:1045600084000A4602EB8000011D204600F032F86C
:1045700004EB4400164901EBC000406904EB440120
:10458000134A02EBC101096904EB4405164606EB28
:10459000C505CDE90010EB6804EB440506EBC50545
:1045A0002A8904EB440506EBC505696804EB44055C
:1045B00056F8350014F02AFE601CC4B2082CC8DB83
:1045C0007CBD00006C140020500800208C9701086E
:1045D000A0970108FEB505460E46554800EB451468
:1045E00002208DF80900A089019002208DF80800B2
:1045F00001A9A068FEF7C1F82279E189A068FEF759
:1046000004F9A08A019002208DF8080001A9206910
:10461000FEF7B3F82279E18A2069FEF7F6F8A0697F
:1046200058B1A08B019000208DF8080001208DF872
:104630000B0001A9A069FEF7A0F83146284603F057
:104640007BFC002005EB850101EBC511394A02EB2B
:10465000C101A1F8000205EB850101EBC51102EBD8
:10466000C101A1F8020205EB850101EBC51102EBC6
:10467000C101A1F80402002105EB850000EBC51083
:1046800002EBC000A0F80614002005EB850101EB49
:10469000C51102EBC101A1F80C0405EB850101EB8A
:1046A000C51102EBC10181F80E0403220021012093
:1046B00014F04CFA05EB850101EBC5111D4A02EB24
:1046C000C101C1F8140405EB850101EBC51102EB32
:1046D000C10100231A46D1F81404194614F090FBC6
:1046E000318905EB850202EBC512124B03EBC202C6
:1046F00002F5836000F020F8A0798DF80000062014
:104700008DF8010000208DF8020001208DF80300D3
:10471000684601F0C9FC012240F22551206804F0EE
:104720008AFF0121206804F043FF0120FEBD000044
:1047300058BD0108D816002000B502460B460020DF
:1047400010701946104603F0F5FB0020D06000BD44
:1047500070B50446C4EBC4000B4951F820500B4916
:104760002846FCF743FB60B90849FF312846FCF7AF
:104770003DFB30B906492846FCF738FB08B9012053
:1047800070BD0020FCE7000068BE01080100003891
:104790000000013810B5044604EB840101EBC4119C
:1047A000034A02EBC10101F5836008F04FFB10BD25
:1047B000D81600201CB500241BE00F4800EBC400F5
:1047C0008088009000208DF8050001208DF80400FD
:1047D000094951F834006946FDF7CFFF064A02EB5C
:1047E000C4029188044A52F83400FEF745F8601C70
:1047F000C4B2042CE1DB1CBD24BB010810B5044687
:10480000044A02EBC4029188024A52F83400FEF7CF
:1048100031F810BD24BB010810B50446044A02EB70
:10482000C4029188024A52F83400FEF725F810BD00
:1048300024BB010810B504460E4A02EBC40291885D
:104840000C4A52F83400FEF70CF848B1094A02EB62
:10485000C4029188074A52F83400FEF70BF808E0CA
:10486000044A02EBC4029188024A52F83400FEF76F
:1048700003F810BD24BB010800BFFEE72DE9F04797
:1048800004468A462046FEF711F9804645462046F2
:10489000FFF780FF00287DD098F80E04002879D11A
:1048A000204603F0EFFBB5F80072002619E0B5F8DA
:1048B0000402285C04EBC411484A02EB410188550C
:1048C000B5F80402401CA5F80402B5F80402C117AB
:1048D00000EBD1514912A0EB4121A5F80412701C44
:1048E00086B2BE42E3DB04EBC4103C4901EB40005E
:1048F000A0F80071B5F80002C01BA5F8000204EB97
:10490000C411364A02EB4100514602F019F804EB9B
:10491000C410324901EB4000B0F80001D8B304EBF9
:10492000C4120B4603EB4202B2F8001104EBC412AE
:1049300003EB4200FDF7A2FF814609F0FF0104EB03
:10494000C410264A02EB4000B0F8002104EBC4106A
:10495000224B03EB4000B0F80001401C04EBC413F1
:10496000DFF878C00CEB4303A3F8000104EBC4109C
:10497000634603EB400081544FEA292104EBC41045
:104980001A4602EB4000B0F8002104EBC41003EB20
:10499000400001E020E01CE0B0F80001401C04EB06
:1049A000C4130CEB4303A3F8000104EBC4106346EB
:1049B00003EB4000815404EBC41003EB400090F87B
:1049C000002104EBC41003EB4001204604F0A4FDD9
:1049D00002E0002088F80E04BDE8F08756090020A8
:1049E00070B5FEB005464FF4FA7616E0324601A9DE
:1049F000284609F037FE0446002C0ADD00232A462B
:104A0000064901A802F00EFC642101A8FBF7A2FCF4
:104A100003E0002C01DA7EB070BDE7E7B0110020A2
:104A20008AB00022012102200AF0F2F8041E02DA04
:104A30000A2013F0CDFD02208DF8150042F2283037
:104A400008F09DFDADF8160000200690102205A983
:104A5000204608F077FC002805DA204608F00AFD19
:104A60000A2013F0B5FD0121204608F0D5FD0DE028
:104A70001020099009AA01A9204608F0EDFA054680
:104A80002846FFF7ADFF284608F0F4FCF0E70000E9
:104A900070B5054605EB850000EBC500074901EB45
:104AA0008004218EE06AFDF7E7FE0A2013F090FDF6
:104AB000218EE06AFDF7DEFE70BD0000A8B9010896
:104AC00070B5044604EB840000EBC400034901EB1D
:104AD0008005298B6869FDF7CDFE70BDA8B9010876
:104AE00070B5044604EB840000EBC400034901EBFD
:104AF0008005298B6869FDF7BFFE70BDA8B9010864
:104B00002DE9F041074600BF07EB87001F4901EB85
:104B1000C00407EB870101EBC7011D4A02EB8101CD
:104B2000886803F06AFCA269E369851843F100060E
:104B30006069006800212B46A0FB032801FB05816A
:104B400006FB00161546E068008800212A46A0FBF7
:104B5000023801FB058106FB00161D462069B0F8EE
:104B600000C06246002328463146FBF797FB054606
:104B70000E462068D0F800C0624600232846314621
:104B8000FBF78CFB05462846BDE8F08110010020AC
:104B9000A8B9010830B58BB0054605EB850000EBE0
:104BA000C500714901EB800402208DF82900208B9B
:104BB000099001208DF8280000208DF82A0001209E
:104BC0008DF82B0009A96069FDF7D7FD208D0990AC
:104BD00009A9606AFDF7D1FD208E099009A9E06A54
:104BE000FDF7CBFD02208DF82800208C099009A943
:104BF000E069FDF7C2FD2279618CE069FDF705FEF1
:104C000005A803F0D7FD59492068884203D05849C8
:104C10002068884202D1B320069001E05920069016
:104C20000020ADF81C001020ADF8160005A9206882
:104C300003F07EFD0121206803F0ACFB8021206899
:104C400003F059FD2021206803F05EFD684603F063
:104C50003CFD6020ADF800000120ADF802004349A2
:104C60002068884203D042492068884202D15920F6
:104C7000029001E02C2002900220ADF80C00E088A8
:104C800030B1042819D0082820D00C2830D126E0D3
:104C90006946206803F0CEFB0821206803F008FC79
:104CA00032492068884203D031492068884203D1C4
:104CB0000121206803F092FB1BE06946206803F0A5
:104CC00001FC0821206803F04FFC12E069462068CF
:104CD00003F058FC0821206803F0A4FC09E06946B1
:104CE000206803F0A9FC0821206803F0E1FC00E043
:104CF00000BF00BF05EB85001E4901EBC000406806
:104D0000008878BB05A803F055FD0020ADF81C0015
:104D1000ADF8160005A9A06803F00AFD0721A068F8
:104D200003F0FBFCA189A06803F0DCFCA07B8DF8FC
:104D3000200001208DF8210000208DF822000120A4
:104D40008DF8230008A801F0AFF90121A06803F055
:104D50002DFB218A0122A06803F063FB0121A068DA
:104D600003F027FB0BB030BDA8B9010800000140DB
:104D700000040140100100202DE9F04105460F46D6
:104D8000032D02DB0020BDE8F08105EB850000EB80
:104D9000C500174901EB800405EB8500154901EBBF
:104DA000C00686F8247087B90021A06803F00DFBC7
:104DB000B068008820B9218D606AFDF75DFD14E0C0
:104DC000218D606AFDF756FD0FE01021A06803F009
:104DD000FCFAB068008820B9218D606AFDF74AFDB1
:104DE00003E0218D606AFDF747FD0120CBE700005D
:104DF000A8B901081001002010B50446002104EBF9
:104E00008402084B03EBC2029161D16104EB84017F
:104E100001EBC401044A02EB81018868002103F020
:104E200085FC10BD10010020A8B901082DE9F05F34
:104E300081460C46B9F1030F02DB0020BDE8F09F6C
:104E400009EB8900264901EBC00A002C04DD002192
:104E50004846FFF791FF09E0002C05DA012148469A
:104E6000FFF78AFF644201E00020E7E7DAF8140068
:104E7000D0F800C0DAF8000000680021E217A0FBBB
:104E8000047E01FB04E100FB021162460023384668
:104E9000FBF704FA05460E4609EB890000EBC90052
:104EA000104901EB800B0823E81A76F1000115DBAD
:104EB0000D490020491BB04110DB2A4633460B4800
:104EC0000021FBF7EBF9401E87B24FF00002394694
:104ED000DBF8000003F003FC0120AFE70020ADE7A2
:104EE00010010020A8B9010890D0030040420F0033
:104EF00070B5044604EB840000EBC400054901EBE7
:104F000080050021286803F011FC0121286803F0C6
:104F100050FA70BDA8B9010870B5044604EB8400CE
:104F200000EBC400034901EB80050021286803F071
:104F300040FA70BDA8B901082DE9F04106460127E5
:104F40000024032E07DA06EB4600C0EB8610484922
:104F500001EB800403E000273846BDE8F08100251E
:104F60006068008848BB3046FFF7CAFD0546A06868
:104F70000088F0B9606A0068B5FBF0F100FB1155DC
:104F80002069008828B9002D13DA606A006805449A
:104F90000FE02069008801280BD1B42D03DD606A81
:104FA00000682D1A05E015F1B40F02DC606A006894
:104FB0000544D4F8A00005602CE060680088012852
:104FC00028D13046FCF7B8FA0546A0680088F0B949
:104FD000606A0068B5FBF0F100FB1155206900889C
:104FE00028B9002D13DA606A006805440FE02069D3
:104FF000008801280BD1B42D03DD606A00682D1AEA
:1050000005E015F1B40F02DC606A00680544D4F8CD
:10501000A0000560D4F89400008838B13046D4F878
:10502000F01088470020D4F894100880A06A007817
:1050300030B1012809D002280CD0032814D10EE089
:105040002146304600F0A0FD0FE02146304600F03A
:105050001DFA0AE02146304600F0A2FE05E0214696
:10506000304600F007F800E000BF00BF012074E701
:10507000500200202DE9F04105460C460126D4F8E7
:105080008C00008870B10020D4F88C10088028466D
:10509000D4F8E8108847012084F8A400B4F8D600BA
:1050A000A16A0880D4F89000008870B194F8A40038
:1050B00001280AD0002054F8901F0880A0612846DB
:1050C000A16D884701202075903C94F8A4000D281C
:1050D00072D006DC012809D00B2875D00C286DD1C0
:1050E000B6E00E286BD00F28F9D178E1D4F888000B
:1050F0000088002867D0002054F8881F08802062AC
:105100006062883C2146284602F0F0FDD4F8800019
:10511000008880B9E06F00884042C4F8A8002146AA
:10512000284600F08FFF2846D4F8E41088470B206B
:1051300084F8A40047E0D4F880000088012810D14A
:10514000E06F00884042C4F8A8002146284600F0DD
:1051500079FF2846D4F8E41088470C2084F8A4008E
:1051600031E0D4F88000008802280FD1E06F008879
:10517000C4F8A8002146284600F064FF2846D4F869
:10518000E41088470D2084F8A4001CE0D4F88000C7
:105190000088032814D1E06F00884042C4F8A800BA
:1051A0002146284600F04EFF2846D4F8E4108847F0
:1051B0000C2084F8A40006E099E005E044E1E6E074
:1051C0000020BDE8F08140E12846FDF7D3FB01282F
:1051D00026D12846D4F8E8108847D4F8840000681F
:1051E00058B92146284602F081FD012084F8A40028
:1051F000B4F8D600A16A088012E07C34606A0068C6
:10520000A06320680088E0627C3C2146284600F0CC
:1052100019FF2846D4F8E41088470F2084F8A4002A
:10522000D4F8A0100868002801DB014600E04142E4
:10523000226B126891420AD92846D4F8E8108847B0
:10524000012084F8A400B4F8D600A16A0880FCE02C
:105250002846FDF761FB01282CD12846D4F8E81038
:105260008847D4F88000008801280BD121462846C1
:1052700002F03CFD012084F8A400B4F8D600A16A35
:10528000088017E0D4F880000088032812D1214656
:10529000284602F02BFDE06F0088C4F8A8002146E4
:1052A000284600F0CFFE2846D4F8E41088470D20A9
:1052B00084F8A400D4F8A0100868002801DB014697
:1052C00000E04142226B126891420BD92846D4F883
:1052D000E8108847012084F8A400B4F8D600A16A39
:1052E0000880B2E02146284600F0ACFEADE028463A
:1052F000FDF75EFB01282DD12846D4F8E810884739
:10530000D4F88000008802280BD12146284602F0FC
:10531000EDFC012084F8A400B4F8D600A16A08804E
:1053200018E0D4F880000088032813D17C34606A28
:105330000068A063206800884042E0627C3C21460F
:10534000284600F07FFE2846D4F8E41088470E2057
:1053500084F8A400D4F8A0100868002801DB0146F6
:1053600000E04142226B126891420BD92846D4F8E2
:10537000E8108847012084F8A400B4F8D600A16A98
:10538000088062E02146284600F05CFE5DE0D4F82B
:10539000B41001EBD172D4F8A0301B68C3EB6200EB
:1053A000002801DB024600E04242A36B1B880A335F
:1053B0009A420FDA2846D4F8E81088472146284652
:1053C00002F094FC012084F8A400B4F8D600A16A8D
:1053D00008803AE02146284600F034FE35E00027F8
:1053E000A068008860B9D4F88410D4F8B4000968C3
:1053F000084448F6A04190FBF1F201FB120705E0DA
:10540000D4F88410D4F8B40009684718D4F8A01070
:105410000968781A002801DB014600E04142A26BCE
:1054200012880A3291420EDA2846D4F8E8108847EA
:105430002146284602F05AFC012084F8A400B4F862
:10544000D600A16A088000E000BF00BF0120B8E6D6
:1054500001460020032907DA01EB4102C2EB811269
:10546000094B03EB820000E07047826A1288A0F8C3
:10547000D6200322836A1A80012280F8A420D0F863
:1054800088301A8000BFEFE7500200202DE9F0417C
:1054900006460C464FF001080025032E03DAA64805
:1054A00000EB861504E04FF000084046BDE8F081AF
:1054B000D4F88C000088A0B10020D4F88C100880AB
:1054C00094F8A40003280CD1E06C008800EB800065
:1054D0004000642190FBF1F0A4F8D000082084F88B
:1054E000A400D4F89000008870B194F8A4000128BA
:1054F0000AD0002054F8901F0880A0613046A16DAA
:10550000884701202075903C94F8A400012804D01D
:1055100003285DD008287CD1CBE0D4F8880000882F
:10552000002854D0002054F8881F08806069006863
:105530002063002020626062A16909686269883C7A
:105540001268881A002801DB014600E04142A26B84
:10555000128891423BDD032084F8A400A06C0088EF
:1055600000EB80004000642190FBF1F0A4F8D00033
:1055700040212846FAF7EEFE206D00882883606DF2
:1055800000886883A06D0088A883E06D0088286289
:10559000206C00886863606C0088A863D4F89C0065
:1055A00000682860D4F8A00000686860204600F019
:1055B000C5F8002803DD002084F8B00007E020468D
:1055C00000F0BCF8002802DA012084F8B000AFE057
:1055D000204600F0B3F8071E01DB384600E07842B1
:1055E000A16B0988884259DDD4F8A0000068686082
:1055F000204600F0A3F8A860284600F097FE286B2C
:10560000D4F8A810884214DD286BD4F8A810401AEA
:1056100000E08CE0B4F8D010884206DD54F8A80F02
:10562000218D084444F8A80920E0286BC4F8A8009C
:105630001CE0286BD4F8A810884217DAD4F8A81018
:10564000C817D5E90A278B1A60EB0700B4F8D01009
:105650000022C91A824106DA54F8A80F218D401A97
:1056600044F8A80902E0286BC4F8A800D4F8A80000
:1056700058B12146304600F0E5FCD4F8AC0040B902
:105680003046D4F8E410884703E03046D4F8E810F8
:105690008847D4F8A800C4F8AC0009E0A434304628
:1056A000616C88470120207000206060A060A43CED
:1056B0003EE0D4F8A800002812DA54F8A80F218D93
:1056C0000844206054F8A809002827DB0020A434EF
:1056D00060603046616C8847012004F8A4091DE031
:1056E000D4F8A800002812DD54F8A80F218D401A24
:1056F000206054F8A809002810DC0020A434606061
:105700003046616C8847012004F8A40906E0304661
:10571000D4F8E8108847012084F8A40021463046D8
:1057200000F090FCD4F8A800C4F8AC0000E000BF82
:1057300000BF0120BAE600003005002010B5014688
:1057400000228B681B887BBBD1F89C301B68D1F88A
:10575000A0402468181B002801DB034600E04342F8
:105760004C6A2468B3EB540F1FD9D1F89C00006831
:10577000D1F8A0301B68C01A00280ADDD1F89C00BF
:105780000068D1F8A0301B68C01A4B6A1B68C21AA7
:1057900012E0D1F89C000068D1F8A0301B68C01A54
:1057A0004B6A1B68C21807E0FFE7D1F89C0000684D
:1057B000D1F8A0301B68C21A104610BD7CB5002479
:1057C000F3E004EB4400C0EB84107A4951F8200068
:1057D000008800287BD004EB4400C0EB841001EB70
:1057E00080004069008810B1012872D137E072480A
:1057F00004EB4401C1EB84116E4A02EB8101C1F854
:10580000D8006E4804EB4401C1EB841102EB810126
:10581000C1F8DC006A4804EB4401C1EB841102EBDF
:105820008101C1F8E000674804EB4401C1EB841139
:1058300002EB8101C1F8E400634804EB4401C1EBD1
:10584000841102EB8101C1F8E800604804EB4401D7
:10585000C1EB841102EB8101C1F8EC003AE05C4835
:1058600004EB4401C1EB8411524A02EB8101C1F8FF
:10587000D800584804EB4401C1EB841102EB8101CC
:10588000C1F8DC00544804EB4401C1EB841102EB85
:105890008101C1F8E000514804EB4401C1EB8411DF
:1058A00002EB8101C1F8E4004D4804EB4401C1EB77
:1058B000841102EB8101C1F8E8004A4804EB44017D
:1058C000C1EB841102EB8101C1F8EC0002E06AE057
:1058D000FFE700BF00BF04EB4400C0EB8410354A73
:1058E00002EB8000D0F8D8102046884704EB440033
:1058F000C0EB84102F4A02EB8000D0F8DC10204669
:10590000884704EB4400C0EB84102A4901EB800077
:10591000806F008818B304EB4400C0EB841001EBE7
:105920008000806A008804EB4401C1EB8411214AA5
:1059300002EB8101A1F8D600032004EB4401C1EB86
:10594000841102EB8101896A0880012004EB440183
:10595000C1EB841102EB8101D1F88810088004EBBF
:105960004400214901EBC000406904EB44011E4A98
:1059700002EBC101096904EB4405164606EBC505B7
:10598000CDE90010EB6804EB440506EBC5052A8958
:1059900004EB440506EBC505696804EB440556F8BD
:1059A000350013F033FC601CC4B2032CFFF609AFC2
:1059B0007CBD000050020020954B0008E14A000821
:1059C000C14A0008F14E0008194F00082D4E00088A
:1059D0008913000859130008291300083D1800080E
:1059E0006D1800086117000894BA010870B50346E5
:1059F0000A4601250021032B07DA03EB4300C0EB25
:105A000083101D4E06EB800102E00025284670BD84
:105A100091F8A400012800D112B900252846F6E724
:105A2000886A0078012802D001208E6A3070D1F88F
:105A3000A00000688418086F00684E6F3668B04296
:105A40000AD0086F0068A04203DC486F0068A042DB
:105A500002DA00252846DAE78831886900681044B0
:105A60004E693060002081F84C00012051F88869AF
:105A7000308000BFCBE700005002002030B5034665
:105A80000A4601200021032B07DA03EB4304C4EB91
:105A90008314114D05EB840101E0002030BD0C6F33
:105AA00024684D6F2D68AC4209D00C6F2468944275
:105AB00003DC4C6F2468944201DA0020EEE7D1F851
:105AC0009C402260002481F8D4400124D1F8885001
:105AD0002C8000BFE2E700005002002030B50246F3
